{
  "contractName": "Bank",
  "abi": [
    {
      "inputs": [],
      "stateMutability": "nonpayable",
      "type": "constructor"
    },
    {
      "inputs": [],
      "name": "name",
      "outputs": [
        {
          "internalType": "string",
          "name": "",
          "type": "string"
        }
      ],
      "stateMutability": "view",
      "type": "function",
      "constant": true
    },
    {
      "stateMutability": "payable",
      "type": "receive",
      "payable": true
    },
    {
      "inputs": [
        {
          "internalType": "address",
          "name": "_to",
          "type": "address"
        },
        {
          "internalType": "uint256",
          "name": "_amount",
          "type": "uint256"
        }
      ],
      "name": "sendMoney",
      "outputs": [],
      "stateMutability": "nonpayable",
      "type": "function"
    },
    {
      "inputs": [
        {
          "internalType": "address",
          "name": "_from",
          "type": "address"
        }
      ],
      "name": "getBalance",
      "outputs": [
        {
          "internalType": "uint256",
          "name": "",
          "type": "uint256"
        }
      ],
      "stateMutability": "view",
      "type": "function",
      "constant": true
    }
  ],
  "bytecode": "0x608060405234801561001057600080fd5b506040518060400160405280600c81526020017f4d7943727970746f42616e6b0000000000000000000000000000000000000000815250806000908051906020019061005d929190610064565b5050610168565b82805461007090610136565b90600052602060002090601f01602090048101928261009257600085556100d9565b82601f106100ab57805160ff19168380011785556100d9565b828001600101855582156100d9579182015b828111156100d85782518255916020019190600101906100bd565b5b5090506100e691906100ea565b5090565b5b808211156101035760008160009055506001016100eb565b5090565b7f4e487b7100000000000000000000000000000000000000000000000000000000600052602260045260246000fd5b6000600282049050600182168061014e57607f821691505b6020821081141561016257610161610107565b5b50919050565b6107e0806101776000396000f3fe6080604052600436106100385760003560e01c806306fdde031461009a578063ee4ae2c9146100c5578063f8b2cb4f146100ee57610095565b366100955734600160003373ffffffffffffffffffffffffffffffffffffffff1673ffffffffffffffffffffffffffffffffffffffff168152602001908152602001600020600082825461008c91906103e0565b92505081905550005b600080fd5b3480156100a657600080fd5b506100af61012b565b6040516100bc91906104cf565b60405180910390f35b3480156100d157600080fd5b506100ec60048036038101906100e79190610580565b6101bd565b005b3480156100fa57600080fd5b50610115600480360381019061011091906105c0565b6102ef565b60405161012291906105fc565b60405180910390f35b60606000805461013a90610646565b80601f016020809104026020016040519081016040528092919081815260200182805461016690610646565b80156101b35780601f10610188576101008083540402835291602001916101b3565b820191906000526020600020905b81548152906001019060200180831161019657829003601f168201915b5050505050905090565b80600160003373ffffffffffffffffffffffffffffffffffffffff1673ffffffffffffffffffffffffffffffffffffffff16815260200190815260200160002054101561023f576040517f08c379a0000000000000000000000000000000000000000000000000000000008152600401610236906106ea565b60405180910390fd5b80600160003373ffffffffffffffffffffffffffffffffffffffff1673ffffffffffffffffffffffffffffffffffffffff168152602001908152602001600020600082825461028e919061070a565b9250508190555080600160008473ffffffffffffffffffffffffffffffffffffffff1673ffffffffffffffffffffffffffffffffffffffff16815260200190815260200160002060008282546102e491906103e0565b925050819055505050565b60008073ffffffffffffffffffffffffffffffffffffffff168273ffffffffffffffffffffffffffffffffffffffff161415610360576040517f08c379a00000000000000000000000000000000000000000000000000000000081526004016103579061078a565b60405180910390fd5b600160008373ffffffffffffffffffffffffffffffffffffffff1673ffffffffffffffffffffffffffffffffffffffff168152602001908152602001600020549050919050565b6000819050919050565b7f4e487b7100000000000000000000000000000000000000000000000000000000600052601160045260246000fd5b60006103eb826103a7565b91506103f6836103a7565b9250827fffffffffffffffffffffffffffffffffffffffffffffffffffffffffffffffff0382111561042b5761042a6103b1565b5b828201905092915050565b600081519050919050565b600082825260208201905092915050565b60005b83811015610470578082015181840152602081019050610455565b8381111561047f576000848401525b50505050565b6000601f19601f8301169050919050565b60006104a182610436565b6104ab8185610441565b93506104bb818560208601610452565b6104c481610485565b840191505092915050565b600060208201905081810360008301526104e98184610496565b905092915050565b600080fd5b600073ffffffffffffffffffffffffffffffffffffffff82169050919050565b6000610521826104f6565b9050919050565b61053181610516565b811461053c57600080fd5b50565b60008135905061054e81610528565b92915050565b61055d816103a7565b811461056857600080fd5b50565b60008135905061057a81610554565b92915050565b60008060408385031215610597576105966104f1565b5b60006105a58582860161053f565b92505060206105b68582860161056b565b9150509250929050565b6000602082840312156105d6576105d56104f1565b5b60006105e48482850161053f565b91505092915050565b6105f6816103a7565b82525050565b600060208201905061061160008301846105ed565b92915050565b7f4e487b7100000000000000000000000000000000000000000000000000000000600052602260045260246000fd5b6000600282049050600182168061065e57607f821691505b6020821081141561067257610671610617565b5b50919050565b7f4552524f523a20596f7520646f206e6f7420686176652074686973206d75636860008201527f2065746865722100000000000000000000000000000000000000000000000000602082015250565b60006106d4602783610441565b91506106df82610678565b604082019050919050565b60006020820190508181036000830152610703816106c7565b9050919050565b6000610715826103a7565b9150610720836103a7565b925082821015610733576107326103b1565b5b828203905092915050565b7f4552524f523a20496e76616c6964206164647265737300000000000000000000600082015250565b6000610774601683610441565b915061077f8261073e565b602082019050919050565b600060208201905081810360008301526107a381610767565b905091905056fea2646970667358221220a220ba6500188c32513530e87bb5fdda65c19a84f275c6b6773acd2bd252becf64736f6c634300080b0033",
  "immutableReferences": {},
  "source": "// SPDX-License-Identifier: MIT\npragma solidity ^0.8.0;\n\nimport \"./BankMetadata.sol\";\n\ncontract Bank is BankMetadata {\n\n    mapping(address => uint256) _balances;\n\n    constructor() BankMetadata(\"MyCryptoBank\") {\n\n    }\n\n    function sendMoney(address _to, uint256 _amount) external {\n        require(_balances[msg.sender] >= _amount, \"ERROR: You do not have this much ether!\");\n\n        _balances[msg.sender] -= _amount;\n        _balances[_to] += _amount; \n    }\n\n    receive() payable external {\n        _balances[msg.sender] += msg.value;\n    }\n\n    function getBalance(address _from) external view returns(uint256) {\n        require(_from != address(0), \"ERROR: Invalid address\");\n        return _balances[_from];\n    }\n\n}\n",
  "sourcePath": "/home/wannes/Documents/School/UCDP/contracts/Bank.sol",
  "compiler": {
    "name": "solc",
    "version": "0.8.11+commit.d7f03943.Emscripten.clang"
  },
  "schemaVersion": "3.4.4",
  "updatedAt": "2022-02-07T15:40:56.254Z",
  "networkType": "ethereum",
  "devdoc": {
    "kind": "dev",
    "methods": {},
    "version": 1
  },
  "userdoc": {
    "kind": "user",
    "methods": {},
    "version": 1
  }
}